:020000040800F2
:100000009807002089010008B5170008AD170008FF
:10001000B117000845020008E117000800000000C1
:10002000000000000000000000000000BD170008F4
:100030004902000800000000B9170008C1170008B5
:10004000A3010008A3010008A3010008A301000800
:10005000A3010008A3010008A3010008A3010008F0
:10006000A3010008A3010008A3010008A3010008E0
:10007000A3010008A3010008A3010008A3010008D0
:10008000A3010008A3010008A3010008A3010008C0
:10009000A3010008A3010008A3010008A3010008B0
:1000A000A3010008A3010008A3010008A3010008A0
:1000B000C9170008D5170008A3010008A30100080C
:1000C000A3010008A3010008A3010008A301000880
:1000D000A3010008A3010008A3010008A301000870
:1000E000A3010008A3010008A301000800F002F822
:1000F00000F03AF80AA090E8000C82448344AAF188
:100100000107DA4501D100F02FF8AFF2090EBAE885
:100110000F0013F0010F18BFFB1A43F0010318473B
:10012000241D0000441D0000103A24BF78C878C187
:10013000FAD8520724BF30C830C144BF04680C60ED
:10014000704700000023002400250026103A28BF35
:1001500078C1FBD8520728BF30C148BF0B60704739
:100160001FB51FBD10B510BD00F031F81146FFF7E7
:10017000F7FF01F0BFFB00F04FF803B4FFF7F2FF09
:1001800003BC00F057F800000948804709480047C1
:10019000FEE7FEE7FEE7FEE7FEE7FEE7FEE7FEE737
:1001A000FEE7FEE704480549054A064B7047000094
:1001B000C5170008ED0000089801002098070020EE
:1001C00098030020980300207047704770477546D9
:1001D00000F02CF8AE4605006946534620F00700B3
:1001E000854618B020B5FFF7DDFFBDE820404FF091
:1001F00000064FF000074FF000084FF0000BAC4630
:10020000ACE8C009ACE8C009ACE8C009ACE8C0097A
:1002100021F007018D46704710B50446AFF300800A
:100220002046BDE81040FFF7A8BF00000048704717
:100230004000002001491820ABBEFEE72600020066
:1002400070470000FEE7000070470000B0B50446AC
:1002500000F032F9054640F20000C2F200000078DA
:10026000611C18BF044400BF00F026F9401BA042E7
:10027000FAD3B0BD2DE9F04F82B00E68002E00F029
:10028000038141F20042C4F20102042340F2004E15
:10029000904208BF03234FF6FF7CC4F2010E009387
:1002A00000240123C1F2100C4FF0000A4FF00009A6
:1002B00049E000BF012704F00C030F229A402BEA0B
:1002C000020207FA03F34FEA9A051A4346F825207B
:1002D000D1F804B040F20C455FEACB22DEF80820EA
:1002E00054BF22EA080242EA0802C4F20105CEF82D
:1002F00008202A685FEA8B2354BF22EA080242EAF8
:1003000008022A605FEA8B33DEF8042054BF22EA39
:10031000080242EA08025FEACB33CEF80420DEF896
:1003200000204FF0010354BF22EA080242EA08020B
:10033000CEF800200E680AF1010A36FA0AF204F13A
:10034000040400F0A18003FA0AF816EA080FF1D0BD
:100350004E68664512DC122E56D8DFE806F0350BE3
:100360004549555555555555555555555555554D61
:10037000510000BFD1F80C9046E000BF4FF6FF726D
:10038000C1F2210296420FDC0022C1F21102964214
:100390001AD00022C1F21202964215D00022C1F2F8
:1003A0002102964210D02FE00022C1F22202964292
:1003B0000AD00022C1F23102964205D00022C1F2D9
:1003C0003202964220D100BF8A684AB1012A14BF86
:1003D000C0F81480C0F810804FF0080914E000BF86
:1003E0004FF0040910E000BFCA6802F108090BE0F1
:1003F0004FF0000908E000BFCA6802F1040903E0F9
:10040000CA6802F10C0900BF22460646BAF1080F7D
:1004100024BF203A043637680F25954027EA0505A2
:1004200009FA02F22A433260CA79D2067FF582AF16
:1004300041F21803C4F202031A68AEF57E7642F068
:1004400001021A601A6802F001020192019A2AF070
:10045000030256F802B040F60002C4F201029042D4
:1004600010D040F60042C4F2010290423FF422AFA5
:1004700041F20002C4F20102009F904208BF02272D
:1004800019E700BF002716E702B0BDE8F08F0000B3
:100490008068084018BF012070470000C26802EA67
:1004A0000103914341EA034101617047002A08BFFB
:1004B000090401617047000040F29410C2F200008C
:1004C0000068704740F2000040F29411C2F2000050
:1004D000C2F2000100780A6810440860704700000A
:1004E00080B542F20000C4F20200016841F0100140
:1004F0000160032000F08EF80F2000F005F800F0F6
:1005000027F8002080BD000070B540F20006C2F25E
:10051000000640F208013278C2F200014FF47A730B
:100520000968B3FBF2F20446B1FBF2F1084600F0B1
:100530003BFB0F2C4FF0010508D838B94FF0FF30C6
:1005400021460022002500F039F87460284670BD6D
:1005500082B041F21800C4F202000168022241F0A8
:1005600001010160016801F00101019101994168F7
:1005700041F080514160406800F080500090009848
:100580000420C4F20100016862F31A61016002B044
:1005900070470000002848BF7047C1B200F01F003C
:1005A000012202FA00F04EF20012CEF2000242EAFC
:1005B000D10121F0030108607047000010B54EF62C
:1005C0000C5CCEF2000CDCF80030C3F3022E8EF08F
:1005D0000704042C28BF0424BEF103034FF0FF3EA0
:1005E0000EFA04F438BF0023A14399400EFA03F336
:1005F0009A43114300F00F0200F160430901043AED
:1006000003F564436244002848BF02F10C031970EB
:1006100010BD00004EF60C51CEF200010A684FF6F4
:10062000FF031A4060F30A2242F0806040F0FD7040
:10063000086070472DE9F04381B0002800F0858004
:1006400042F20008C4F202080446D8F800000D4641
:1006500000F0070088420CD2D8F8000020F0070014
:100660002843C8F80000D8F8000000F00700A842AE
:100670006BD1206841F204098107C4F2020917D541
:10068000410705D5D9F8001041F4E061C9F8001020
:10069000010705D5D9F8001041F46051C9F80010E0
:1006A000D9F80010A26821F0F0011143C9F8001038
:1006B000C00741D1D8F8000000F00700A8420CD9CB
:1006C000D8F8000020F007002843C8F80000D8F848
:1006D000000000F00700A84237D12068410707D585
:1006E000D9F80010E26821F4E0611143C9F8001064
:1006F000000708D5D9F80000216920F4605040EACD
:10070000C100C9F80000D9F8002002F00C00082848
:1007100041F20020C0F27A0050D141F63463C2F3B6
:100720008341C0F60003595CD2033BD440F600106D
:10073000C0F23D00484341E0606802280AD0012829
:100740002AD159F8041C890308D4012001B0BDE85E
:10075000F08300BF59F8041C8901F6D5D9F80010C0
:1007600021F003010843C9F80000FFF7A5FE064683
:1007700041F28837D9F80000616800F00C00B0EB56
:10078000810F97D0FFF798FE801BB842F2D9032063
:1007900001B0BDE8F08300BF59F8041C8907D4D527
:1007A000DCE700BFD9F8002041F63263C2F34042D3
:1007B000C0F600039A5C4843B0FBF2F0D9F8001091
:1007C00041F62262C1F30311C0F60002515C40F20F
:1007D000080220FA01F140F20400C2F200000068B1
:1007E000C2F200021160FFF78FFE002001B0BDE8E9
:1007F000F08300002DE9F04182B0002868D0044663
:10080000007841F20006C007C4F2020625D07068E5
:1008100000F00C0004281BD0706800F00C000828C1
:1008200002D17068C00313D46068002800F06881AA
:10083000B0F5A02F00F07C81B0F5803F00F07C8106
:10084000306820F480303060306820F4802076E119
:100850003068800301D56068D0B32078800718D550
:10086000706810F00C0F07D0706800F00C000828BA
:100870006ED17068C0036BD43068800702D52069E0
:10088000012825D13068616920F0F80040EAC100F4
:100890003060207800071FD42078400732D4E56903
:1008A00095B1706800F00C00082840F08F80012D91
:1008B0000ED07068216A00F480328A4208D1616AE1
:1008C00000F47010884203D1002002B0BDE8F0812E
:1008D000012002B0BDE8F081A069002862D00020AC
:1008E000C4F242200121C0F88014FFF7E5FD05465F
:1008F000706A800700F18C80FFF7DEFD401B022844
:10090000F6D92AE1F06910F0805808D1F06940F07A
:100910008050F061F06900F080500090009847F23C
:100920000007C4F200073868C00529D4386840F4CD
:1009300080703860FFF7C0FD054600BF3868C0050D
:100940001ED4FFF7B9FD401B6428F7D905E100BFAD
:100950002069002840F20000C4F2422000F08280AA
:1009600001210160FFF7A8FD054600BF3068800740
:100970003FF588AFFFF7A0FD401B0228F6D9ECE059
:10098000E068002800F08080052800F097800128AA
:1009900000F09880306A20F001003062306A20F068
:1009A000040092E00020C4F242200021C0F880142C
:1009B000FFF782FD054600BF706A80077FF56CAFC8
:1009C000FFF77AFD401B0228F6D9C6E00027C4F2E3
:1009D000422700203866FFF76FFD022D05460BD138
:1009E0003068800140F1BE80FFF766FD401B0228A1
:1009F0004FF00300F4D968E7306880017FF564AFF9
:100A0000FFF75AFD401B02284FF00300F4D95CE7C2
:100A100040F20800C2F20000006844F6D351C1F26F
:100A20006201A0FB0101480A019000BF00BF0198CC
:100A3000411E002801913FF42FAF00BF0198411ED5
:100A4000002801913FF428AF00BF0198411E002803
:100A500001913FF421AF00BF0198411E0028019190
:100A6000E4D119E700210160FFF726FD054600BF2C
:100A7000306880077FF50DAFFFF71EFD401B022891
:100A80004FF00300F4D920E7306A20F00100306213
:100A9000306A20F004003062FFF70EFD054641F297
:100AA000883700BF306A800720D5FFF705FD401B5F
:100AB000B8424FF00300F5D907E700BF306A40F0B5
:100AC00004003062306A40F001003062FFF7F4FC4D
:100AD000054641F2883700BF306A800706D4FFF729
:100AE000EBFC401BB842F7D937E000BFB8F1000F6C
:100AF0007FF4D5AEF06920F08050F061CFE600BF02
:100B0000306820F480303060306820F4802030601D
:100B1000FFF7D2FC054600BF306880037FF59DAE2D
:100B2000FFF7CAFC401B64284FF00300F4D9CCE661
:100B3000306840F480203060306840F480303060AD
:100B4000FFF7BAFC054600BF306880033FF585AE6D
:100B5000FFF7B2FC401B6428F6D9032002B0BDE8C1
:100B6000F08100BF206AB0F5803F05D17168A268AE
:100B700021F40031114371607168626A21F47411CB
:100B800011430843706001203866FFF795FC044666
:100B9000306880013FF598AEFFF78EFC001B0228FD
:100BA0004FF00300F4D990E6411E0020B0EB116F26
:100BB0001CBF012070474EF21002CEF200025160BD
:100BC0004EF62351CEF20001F0230B700721906006
:100BD000116070477047000070470000B0B590F892
:100BE0003C20012A04BF0220B0BD01F108053CCD24
:100BF000D1E900CE23F47C5322F470521A432EF430
:100C0000F0431A432CF4E0431A4324F4C0431A433C
:100C10002A43C96922F480420368114359640021C0
:100C200080F83C100846B0BD10B590F83C20012A71
:100C30004FF0020233D080F83D200268D2F804E081
:100C4000D2F808C00C682EF07003234340F2FF7402
:100C5000C4F20004A24253600ADCB2F1804F13D008
:100C600040F20043C4F200039A420DD011E000BFED
:100C700042F60043C4F201039A4205D040F6000355
:100C8000C4F200039A4204D149682CF0800319434E
:100C900091600121002280F83D1080F83C20104630
:100CA00010BD0000002804BF0120704710B50446A5
:100CB00090F83D0028B9002084F83C00204600F060
:100CC00067F8022084F83D00206840F2FF73026854
:100CD000C4F2000342F6004C9842C4F2010C15DC49
:100CE000B0F1804F1AD040F20041C4F200018842B6
:100CF00014D0984218DCB0F1804F1DD040F2004172
:100D0000C4F20001884217D01AE000BF604505D048
:100D100040F60001C4F200018842EAD1A16822F045
:100D200070020A439842E6DD604505D040F60001B6
:100D3000C4F20001884203D1216922F440720A43BF
:100D4000A36922F08001D4F804E0E2681943604509
:100D50000160C262C0F828E002D16169CCF83010AD
:100D600001214161002084F8461084F83E1084F887
:100D70003F1084F8401084F8411084F8421084F841
:100D8000431084F8441084F8451084F83D1010BDD9
:100D900080B584B00068B0F1804F1DD040F20041B2
:100DA000C4F2000188422FD042F60041C4F2010192
:100DB00088420FD141F21C00C4F2020050F8041C1A
:100DC00041F4006140F8041C50F8040C00F4006089
:100DD0000390039804B080BD41F21C00C4F20200ED
:100DE0000168002241F0010101600068002100F06B
:100DF0000100029002981C20FFF7E0FB1C2004B0C9
:100E0000BDE88040FFF7C6BB41F21C00C4F20200FF
:100E10000168002241F0020101600068002100F039
:100E20000200019001981D20FFF7C8FB1D2004B0AF
:100E3000BDE88040FFF7AEBB90F83D1001291CBF14
:100E400001207047022180F83D10006840F2FF72D7
:100E5000C168C4F20002904241F00101C16009DCA6
:100E6000B0F1804F12D040F20041C4F2000188423C
:100E70000CD012E042F60041C4F20101884205D0D4
:100E800040F60001C4F20001884206D1816801F0F9
:100E90000701062904BF00207047016841F00101E5
:100EA00001600020704700000146006841F2111304
:100EB000C26822F00102C260026A1A4204D0012212
:100EC000002081F83D207047026A40F244431A42F4
:100ED000F5D1026822F0010202600122002081F8AF
:100EE0003D20704780B590F83C20012A4FF0020267
:100EF00000F0C28080F83D20D0F800C04FF6777235
:100F0000DCF8083023EA0202CCF808200B684F2BEB
:100F100028DC1F2B44DD202B45D0302B43D0402B29
:100F200040F0AC80D1F804E0C968DCF82030DCF88F
:100F3000202022F00102CCF82020DCF8182022F03A
:100F4000F00242EA011123F00A0242EA0E02CCF852
:100F50001810CCF82020DCF8081041F0470121F0EF
:100F6000300180E06F2B27DDB3F5005F48D0B3F58B
:100F7000805F7AD0702B40F08180D1E901E3C968AD
:100F8000DCF8082043EA0E0322F47F4243EA012101
:100F90001143CCF80810DCF8081041F0770162E04A
:100FA0000BB1102B6AD1DCF8081021F07001194345
:100FB00041F0070157E000BF502B35D0602B5DD1C9
:100FC000D1F804E0C968DCF82030DCF8202022F0F9
:100FD0001002CCF82020DCF8182022F4704242EAFB
:100FE000013123F0A00242EA0E12CCF81810CCF81E
:100FF0002020DCF8081041F0670121F0100132E0F8
:10100000D1E901E3C968DCF8082043EA0E0322F4C1
:101010007F4243EA01211143CCF80810DCF80810A4
:1010200041F480411FE000BFD1F804E0C968DCF85A
:101030002030DCF8202022F00102CCF82020DCF85F
:10104000182022F0F00242EA011123F00A0242EADB
:101050000E02CCF81810CCF82020DCF8081041F073
:10106000570121F02001CCF808100022012180F85E
:101070003D10002180F83C10104680BD0122F5E7AC
:101080007047000010B5016804460869800744BF36
:10109000C8685FEA807039D40869400744BFC868EF
:1010A0005FEA40703ED40869000744BFC8685FEA41
:1010B000007045D40869C00644BFC8685FEAC060D4
:1010C0004AD40869C0071CBFC8685FEAC07051D124
:1010D0000869000644BFC8685FEA006052D4086926
:1010E000400644BFC8685FEA406053D40869800680
:1010F00046BFC8685FEA806010BD6FF020022046DE
:101100000A61BDE81040FFF767BD00BF6FF0020045
:101110000861012020778869800743D02046FFF7C7
:10112000AFFF45E06FF00400086102202077886976
:1011300010F4407F40D02046FFF7A2FF42E000BFFE
:101140006FF00800086104202077C86980073DD04F
:101150002046FFF795FF3FE06FF010000861082080
:101160002077C86910F4407F3AD02046FFF788FF07
:101170003CE000BF6FF001000861204600F0AEFACD
:101180002168A5E76FF0800008612046FFF722FD87
:101190002168A4E76FF040000861204600F004FBDE
:1011A0002168A3E7204600F04DF8204600F0CAF978
:1011B0002168002020776FE7204600F043F82046A2
:1011C00000F0C0F92168002020776CE7204600F08D
:1011D00039F8204600F0B6F921680020207769E749
:1011E000204600F02FF8204600F0ACF921680020DE
:1011F000207766E780B586B0014640F60000C4F26D
:101200000100096800F5105300229942049201D0B0
:1012100006B080BD41F21801C4F202010A6842F032
:1012200004020A60096801F00401019101994FF478
:101230000071029102210391059102A9FFF71AF8AA
:1012400006B080BD704700002DE9F04390F83C30B7
:10125000012B04BF0220BDE8F0834FEAB202032A4B
:101260003CD8DFE802F0034381BD00BF036842F6CB
:1012700000461D6A1A6AC4F2010622F001021A62CF
:101280001A465C6852F818CFB3428E68D1F800E075
:1012900025F0020545EA06050CD1CE68D1E90578AE
:1012A00024F4407425F00C0526F004063C43354335
:1012B00044EA08042CF0730747EA0E075C609F615C
:1012C0004F6809695F631D629F6947F008079F6166
:1012D0009F6927F004079F61B2E000BF012100224F
:1012E00080F83C200846BDE8F08300BF036842F662
:1012F00000461D6A1A6AC4F2010622F010021A6240
:101300001A46D3F804C052F8184FB3428E68D1F889
:1013100000E025F0200545EA061510D1CE68D1E998
:10132000058725F0C0096FF0400505EA06152CF485
:10133000406647EA080745EA090546EA870C24F4AF
:10134000E64444EA0E27C3F804C09F614F68096968
:101350009F631D629F6947F400679F619F6927F43F
:1013600080679F616BE000BF036842F600461D6A1C
:101370001A6AC4F2010622F480721A621A46D3F87D
:1013800004C052F81CEFB3428E680C6825F4007557
:1013900045EA062511D1CE68D1E9058725F44069D3
:1013A000360240F2FF4526EA05052CF4405647EA8E
:1013B000080745EA090546EA071C2EF0730727438C
:1013C000C3F804C0DF614F680969DF631D62DF692C
:1013D00047F00807DF61DF6927F00407DF612FE0CE
:1013E000036842F60047D3F820C01A6AC4F2010726
:1013F00022F480521A621A465C6852F81C5FD1F8D7
:1014000000E08E68BB4204D14F6924F4804444EA72
:1014100087142CF4005747EA063725F4E64646EAD7
:101420000E265C60DE614E6809691E641F62DF691A
:1014300047F40067DF61DF6927F48067DF61090235
:101440001368194311600021002280F83C200846EF
:10145000BDE8F083002804BF0120704710B50446A2
:1014600090F83D0028B9002084F83C00204600F0A8
:1014700067F8022084F83D00206840F2FF7302689C
:10148000C4F2000342F6004C9842C4F2010C15DC91
:10149000B0F1804F1AD040F20041C4F200018842FE
:1014A00014D0984218DCB0F1804F1DD040F20041BA
:1014B000C4F20001884217D01AE000BF604505D091
:1014C00040F60001C4F200018842EAD1A16822F08E
:1014D00070020A439842E6DD604505D040F60001FF
:1014E000C4F20001884203D1216922F440720A4308
:1014F000A36922F08001D4F804E0E2681943604552
:101500000160C262C0F828E002D16169CCF83010F5
:1015100001214161002084F8461084F83E1084F8CF
:101520003F1084F8401084F8411084F8421084F889
:10153000431084F8441084F8451084F83D1010BD21
:10154000704700007047000041B1082910D00429FD
:1015500014BF00F1410200F13F020BE090F83E2081
:10156000012A1CBF01207047022280F83E2013E0B0
:1015700000F140021278012A1CBF012070470222AC
:10158000082907D0042914BF80F8412080F83F20A3
:1015900002E000BF80F84020006801F01F01012236
:1015A000036A8A4023EA02010162036A42F6444167
:1015B000C4F201011A43A1F14403984202620FD020
:1015C00040F2FF71C4F20001884213DCB0F1804F99
:1015D0001CD040F20041C4F20001884216D01CE049
:1015E0000A6842F400420A6040F2FF71C4F200014E
:1015F0008842EBDD42F60041C4F20101884205D089
:1016000040F60001C4F20001884206D1816801F071
:101610000701062904BF00207047016841F001015D
:10162000016000207047000080B5026801F01F0CC7
:10163000012303FA0CFE136A42F6444C23EA0E031C
:10164000C4F2010C1362D2F820E0ACF144039A42D8
:10165000C2F820E013D15CF824EC41F211131EEA29
:10166000030F0CD1D2F820E040F244431EEA030FEE
:1016700005D1DCF8003023F40043CCF80030D2F878
:1016800020C041F211131CEA030F06D1D2F820C08A
:1016900040F244431CEA030F14D0082918D004294F
:1016A0000AD000294FF0010114BF80F8411080F8E2
:1016B0003E10002080BD00BF012180F83F100020B7
:1016C00080BD00BF136823F0010313600829E6D131
:1016D000012180F84010002080BD0000B0B540F22C
:1016E0000411C2F2000100680968884236D040F255
:1016F0004C11C2F200010968884218BFB0BD40F227
:10170000A005C2F200052889298A013082B241F27F
:1017100000049142C4F20104288117D86869298B1A
:10172000AA7EFEF7C3FE28796979421CD0B28842AE
:101730002A7121D2E96800EB400051F8202001EB2A
:1017400080002A61D0E90110C5E9051020464FF458
:101750000051BDE8B040FEF7A1BE00BF40F2A002BC
:10176000C2F2000251780123107823EA010151707E
:10177000BDE8B04000F036B840F24C10C2F20000B4
:10178000FFF792FB05F11C000421FFF7DDFE0520A9
:10179000A87020464FF400510122FEF787FE00207A
:1017A0002870A871B0BD000070470000FEE700007F
:1017B000FEE70000FEE700007047000070470000F1
:1017C000FEF780BE7047000040F20410C2F2000035
:1017D000FFF758BC40F24C10C2F20000FFF752BCB9
:1017E000FEE700002DE9F04381B040F2A006C2F20E
:1017F0000006F2780C46B178012A054609D0012985
:1018000007D10020B07006F11C000421FFF70CFF87
:10181000B17800291CBF481EB070B079691E204302
:1018200018BF0120052915D84FF0000802464FF0D7
:101830000009002600270024DFE801F03804141C0A
:10184000263000BF002280464FF000090026002706
:1018500000242BE0024680468146064607460446A1
:1018600024E000BF00224FF0000881460026002738
:1018700000241BE000224FF000084FF0000906464C
:101880000027002412E000BF00224FF000084FF0B4
:10189000000900260746002408E000BF00224FF0A0
:1018A00000084FF0000900260027044640F6000516
:1018B000C4F2010528460221FEF7F8FD284604215E
:1018C0004246FEF7F3FD284608214A46FEF7EEFDA4
:1018D000284610213246FEF7E9FD284620213A46E7
:1018E000FEF7E4FD28464021224601B0BDE8F04362
:1018F000FEF7DCBD9AB0FEF7F3FD00240120CDE930
:101900000744CDE90544029006904FF4E0104FF4EF
:10191000803102250B9002A8CDE90314CDE90951CD
:10192000FEF768FF20B1EFF3108072B6FEE700BF4C
:101930000F20CDE90C054FF48060CDE90F040CA811
:1019400002210E94FEF776FE20B1EFF3108072B6FE
:10195000FEE700BF41F21800C4F20200016840F641
:10196000000A41F0100101600168C4F2010A01F0AF
:1019700010010291029901680AF5006541F0200109
:1019800001600168012201F02001029102990168C1
:101990004FF4005641F00401016001684FF0010965
:1019A00001F0040102910299016841F0080101600F
:1019B00000684FF4005100F0080002900298284699
:1019C000FEF774FD504640F67E41002240F67E4808
:1019D0000027FEF76BFDCDE9026902AE022428461E
:1019E000314604970594FEF745FC50463146CDE953
:1019F0000289CDE90474FEF73DFC4FF440500AF52E
:101A00008065CDE90207284631460494FEF732FC92
:101A10004FF4804002A981E8810228463146FEF752
:101A200029FC40F2A008C2F200080AF51051404615
:101A300040F81C1F49F63F411997CDE91777CDE9CA
:101A400014770897C0E90177C0E90317C0E9057763
:101A5000FFF728F920B1EFF3108072B6FEE700BF60
:101A60004FF4805008F11C06169016A93046FFF777
:101A700039FA28B1EFF3108072B600BFFEE700BF5D
:101A80003046FFF7E7FC28B1EFF3108072B600BFD5
:101A9000FEE700BF14A93046FFF7C6F820B1EFF308
:101AA000108072B6FEE700BF60200C9000240CA9E5
:101AB00030460422CDE90D44CDE90F44CDE911446F
:101AC000FFF7C2FB20B1EFF3108072B6FEE700BF54
:101AD0004FF40050079002A930460694CDE9044423
:101AE000CDE902440994FFF779F828B1EFF31080AB
:101AF00072B600BFFEE700BF3046FFF77BFB40F247
:101B000004100021C2F200004FF0804248F69F43CB
:101B100040F2CF770591CDE90311CDE90C11C0E971
:101B20000023C0E9021701618161FFF7BBF828B10A
:101B3000EFF3108072B600BFFEE700BF4FF4805095
:101B4000029040F20410C2F2000002A9FFF7CAF9A5
:101B500020B1EFF3108072B6FEE700BF40F2041030
:101B6000C2F200000CA9FFF75FF818B1EFF3108084
:101B700072B6FEE740F24C100021AAF58232C2F2A2
:101B8000000048F69F4340F2CF770591CDE903115D
:101B9000CDE90C11C0E90023C0E9021701618161A0
:101BA000FFF780F820B1EFF3108072B6FEE700BFB8
:101BB0004FF48050029040F24C10C2F2000002A993
:101BC000FFF790F920B1EFF3108072B6FEE700BF87
:101BD00040F24C10C2F200000CA9FFF725F818B132
:101BE000EFF3108072B6FEE7474657F81C0F40F23D
:101BF000041942F6E061C2F2000981634846FFF72A
:101C00001BF9012007F81A0C38460421FFF79CFC49
:101C100040F24C1701200024C2F2000740F2011BE1
:101C200000900020019040E000281CBF013888F897
:101C30000200504602210122FEF738FC50460421E2
:101C40000122FEF733FC504608210122FEF72EFC4C
:101C5000504610210122FEF729FC50462021012286
:101C6000FEF724FC504640210122FEF71FFC4846A7
:101C7000FFF71AF94846FFF7DFF830460421FFF76F
:101C800063FC3846FFF710F950464FF4006100221C
:101C9000FEF70CFC50464FF480610022FEF706FC74
:101CA000A8F802B098F8060050B398F8030000288E
:101CB00040F0B68028464FF48041FEF7E9FB00284B
:101CC000F0D1C820FEF7C2FA28464FF48041FEF753
:101CD000DFFB0028E6D198F8031098F802000129EC
:101CE0004FF48071A8F800109ED001289CD1304696
:101CF000042188F80240FFF797FC98F8020093E768
:101D000098F8000000284BD028464FF40051FEF709
:101D1000BFFB012844D10198002843D1C820FEF719
:101D200095FA28464FF40051FEF7B2FB012837D14F
:101D3000042088F8050040F20C00C2F20000C8F848
:101D40000C00012198F8000088F801100121FFF72C
:101D500049FD4846FFF7A8F84846FFF76DF83046BA
:101D60000421FFF7F1FBD8F80C00012101914FF09D
:101D7000010188F80210A8B1002188F80410A8F821
:101D80000810D0E9001280680024C8F8180038460E
:101D9000C8E90412FFF750F8012088F8060001E0B6
:101DA0000020019028464FF48051FEF771FB012876
:101DB00032D10098C0073FF478AFC820FEF746FA4A
:101DC00028464FF48051FEF763FB01284FF00100D5
:101DD00000907FF46AAF98F800000130C1B2072983
:101DE00008BF0120012188F8000088F80110C0B266
:101DF0000121FFF7F7FC4846FFF756F84846FFF782
:101E00001BF830460421FFF79FFB012088F80200F1
:101E10000020009049E700BF0120009045E700BF87
:101E2000FEE70000000000000000010203040607B6
:101E30000809010202030405060708090A0B0C0D34
:101E40000E0F1010681E0008000000204000000067
:101E500028010008A81E00084000002058070000C4
:101E60004401000800000000010000001000000014
:101E70000024F400000000000008014000040100FC
:101E80000000000000080140000801001E000000E2
:101E900000080140000400002C010000000801407F
:081EA000000800000000000032
:04000005080000ED02
:00000001FF
